:020000041FFFDC
:080000003813FF1F6D00FF1F04
:100008000B78002B00D1704701310360F8E780239B
:1000180030B55B00994200D919000023064A916166
:100028008B4203D153690133536130BD034CC55C26
:100038001C1965760133F3E7FC000020FF0000205F
:1000480030B51C230F25054C05490200DA402A402B
:10005800A25C043B0A601A1DF7D130BD0C03FF1FD8
:1000680000400040002110B5034B044A934201D3DD
:1000780000F006F802C3F9E73803FF1F3803FF1F33
:10008800F0B5724B724A8DB01A6000238022714D10
:10009800D2052B60013313606F4A70491360A522A3
:1000A8006F4B70481A60704B4B3A1A606F4B704A2E
:1000B8001360FFF7A5FF6F496F48FFF7A1FF802383
:1000C8009B0519686D4A914200D01A600026802469
:1000D8000496A40586239B00E758694B644A1B686D
:1000E800684B1360684B1A688023DB031A4002923E
:1000F8000322BB091340023A032B02D0634A5B0078
:100108009A5A029B002B00D0614A3B065B0F019371
:10011800052B01D9063B019301995E4B89005B18B9
:100128005B695D491A435D4B2A601B680322039390
:100138005B4B7A431B6806935A4B1B6807935A4BD1
:100148001B680593FF231A400A600399574A194010
:100158001160069A1340564A1360BB1BC72B30D94F
:1001680054494048FFF74CFF3800FFF769FF5249F0
:100178003C48FFF745FF2868FFF762FF4F493948B9
:10018800FFF73EFF029B374E5A1E934130334C49CE
:1001980033603000FFF734FF0398FFF751FF2C233B
:1001A80006983360FFF74CFF2C2307983360FFF75E
:1001B80047FF2C2305983360FFF742FF0A2333607B
:1001C8003E00A368049A93421AD0A3683D49254883
:1001D8000493FFF715FFE068FFF732FF0A23214A6F
:1001E8001360E368002B00D174E78023E2685B00AA
:1001F8009A4200D96EE7E1683348FFF708FF69E7DC
:1002080063689B0700D465E77F0600D062E7A123F7
:1002180009A80370019B0C2143702B6883702B681D
:100228001B0AC3702B681B0C03712B681B0E4371D0
:10023800039B5BBAC380059B5BBA0381029B5B028D
:10024800DB0F83726368C372D7E7C046048000403F
:10025800911D38000080004000F00040D402FF1FCC
:10026800005000400040004000600040AAAA000082
:1002780000200040E302FF1F009000403259485020
:100288000410004055550000508000400403FF1F33
:10029800911000000C03FF1F08E000401C040540FB
:1002A80018040540100405400C04054018E00040FF
:1002B80028E00040EA02FF1FED02FF1FF402FF1FC3
:1002C800FA02FF1F0003FF1F100000206B69742D46
:1002D80064656D6F20626F6F740A007561727431A6
:1002E8000A00743D00206770696F3D002062746EDB
:1002F8003D00206164633D0072782000100080009A
:100308000010000030313233343536373839616205
:10031800636465660000000000010000000400003E
:100328000008000000000800000010000000200085
:040000051FFF006D6C
:00000001FF
